:100000000C9434000C943E000C943E000C943E0082
:100010000C943E000C943E000C943E000C943E0068
:100020000C943E000C943E000C943E000C943E0058
:100030000C943E000C943E000C943E000C943E0048
:100040000C943E000C943E000C943E000C943E0038
:100050000C943E000C943E000C943E000C943E0028
:100060000C943E000C943E0011241FBECFEFD8E04C
:10007000DEBFCDBF0E9453000C9470000C940000B2
:100080001092C50089E18093C400E0ECF0E080812B
:100090008D7F808388E18093C10086E08093C200D9
:1000A0000895259A08950E9451000E9440002D9ABB
:1000B0002FEF83ED90E3215080409040E1F700C0A6
:1000C00000002D982FEF83ED90E321508040904069
:1000D000E1F700C000008091C6008093C600E7CF22
:0400E000F894FFCFC2
:00000001FF
