:100000000C9434000C943E000C943E000C943E0082
:100010000C943E000C943E000C943E000C943E0068
:100020000C943E000C943E000C943E000C943E0058
:100030000C943E000C943E000C943E000C943E0048
:100040000C943E000C943E000C943E000C943E0038
:100050000C943E000C943E000C943E000C943E0028
:100060000C943E000C943E0011241FBECFEFD8E04C
:10007000DEBFCDBF0E9453000C9473000C940000AF
:100080001092C50089E18093C400E0ECF0E080812B
:100090008D7F808388E18093C10086E08093C200D9
:1000A0000895259A08950E9451000E94400081E41D
:1000B0002D9A2FEF33ED90E3215030409040E1F73F
:1000C00000C000002D982FEF33ED90E32150304019
:1000D0009040E1F700C000009091C00095FFFCCF78
:0A00E0008093C600E5CFF894FFCF2F
:00000001FF
